:060000000A128A110C280F
:10000800FE00030EFA000A08FB000A128A116E2B82
:100018000A128A110F2883134330FD000330FE00B3
:10002800DB30FF00373084000A128A11BB230A1222
:100038008A11C301C401F001F101F201F301F401D5
:10004800F50183010A128A11602AFF0000308A0034
:100058007F0882072E280A128A119B2A0A128A11FF
:10006800022B0A128A11382883120313AC1B3D286D
:100078003F28013040280030AE002E08B200320878
:100088000319472848284D28AB09AC09AB0A0319BE
:10009800AC0A2A08AE002E08A30029080A128A1101
:1000A800A2230A128A11103083120313B3002730D7
:1000B800B4000530AE002E08B1008E288312031359
:1000C8003408A1003308A0002C08A3002B08A200C4
:1000D8000A128A119C210A128A118312031320081A
:1000E8002104031D78287928A6280130B1020A3096
:1000F800A0000030A1003408A3003308A2000A12AF
:100108008A119C210A128A11831203132108B40050
:100118002008B3003408803AFF0080307F02031DB6
:1001280097280130330203189A289B286228A628AA
:1001380020300A128A11D1220A128A110130831240
:100148000313AD028312031331083207AE00AF0167
:10015800AF0D2F08803AB00080303002031DB6285A
:100168002D082E020318B928BA28C2280230831293
:1001780003132D020318C128C2289C2883120313D5
:1001880032080319C828C928CF282D300A128A1125
:10019800D1220A128A11831203133408A1003308EA
:1001A800A0002C08A3002B08A2000A128A119C2187
:1001B8000A128A11831203132008303E0A128A1188
:1001C800D1220A128A11831203133408A1003308BA
:1001D800A0002C08A3002B08A2000A128A110522ED
:1001E8000A128A11831203132108AC002008AB00FD
:1001F8000A30A0000030A1003408A3003308A20090
:100208000A128A119C210A128A11831203132108E7
:10021800B4002008B3003408803AFF0080307F0221
:10022800031D18290130330203181B291C29CF2864
:10023800080083120313A20008122208A000043049
:100248000310A00CFF3E031D242908082006F039DE
:1002580020068800881222030319332934293A29F1
:1002680002302206031D39293A2945290330831211
:100278000313A1009730A000A00B4029A10B40292F
:100288004C290C3083120313A000A00B492900004D
:10029800831203138816F0302205A00020302006B0
:1002A800031D57295829712908122208A000043073
:1002B8000310A00CFF3E031D5C2908082006F03936
:1002C8002006880088120C3083120313A000A00BAC
:1002D8006B29000083120313881608120F302205B9
:1002E800A00008082006F03920068800881222039A
:1002F80003197F298029862902302206031D8529B2
:1003080086299129033083120313A1009730A00096
:10031800A00B8C29A10B8C2998290C30831203136C
:10032800A000A00B9529000083120313881608006B
:1003380083120313A601A11FA229A329AA29A00990
:10034800A109A00A0319A10AA601A60AA31FAD299B
:10035800AE29B729A209A309A20A0319A30A0130E1
:10036800A4002408A606A701A8012008210403194F
:10037800BE29BF29F629A501A50ACD2901300310F8
:10038800A00DA10DFF3E031DC3290130A4002408C0
:10039800A507A11FD029D129C22901300310A70D13
:1003A800A80DFF3E031DD22921082302031DDE29C3
:1003B80020082202031CE129E229E9292008A202D7
:1003C8002108031CA303A302271401300310A10C66
:1003D800A00CFF3E031DEA290130A502031DF529E3
:1003E800F629D12926080319FA29FB29002AA70981
:0803F800A809A70A0319A80ACD
:100400002808A1002708A000080083120313A601F2
:10041000A31F0B2A0C2A132AA209A309A20A031953
:10042000A30AA601A60AA11F162A172A1C2AA00998
:10043000A109A00A0319A10A200821040319212AED
:10044000222A512AA501A50A302A01300310A00D45
:10045000A10DFF3E031D262A0130A4002408A50794
:10046000A11F332A342A252A21082302031D3A2AF0
:1004700020082202031C3D2A3E2A442A2008A20208
:100480002108031CA303A30201300310A10CA00C3C
:10049000FF3E031D452A0130A502031D502A512AA3
:1004A000342A26080319552A562A5B2AA209A309C9
:1004B000A20A0319A30A2308A1002208A000080029
:1004C0008312031337080A128A1129200A128A118B
:1004D0000A128A112F230A128A1183120313A6010A
:1004E000A7010130B5003508A80039080A128A11A1
:1004F00029200A128A1183120313A9010530B500BD
:100500003508AA000A128A11E7230A128A118312F7
:1005100003132108AC002008AB000430B6003608F5
:10052000AD003A080A128A1129200A128A117B2A80
:100530000A128A110C28831203132708A90029081C
:10054000AA002708A9002908A30026080A128A1170
:10055000A2230A128A11C22A280884000A128A11C8
:100560008B230A128A110A128A11D1220A128A11C5
:10057000013083120313A9002908A8070130A9003C
:100580002908AA0783120313280884000A128A1173
:100590008B230A128A11003A031DCF2AD02AAC2AD3
:1005A000080083120313A10008162108A0000430DC
:1005B0000310A00CFF3E031DD82A08082006F039BE
:1005C0002006880088120C3083120313A000A00BB1
:1005D000E72A000083120313881608160F3021053E
:1005E000A00008082006F0392006880088120C3088
:1005F00083120313A000A00BFB2A00008312031335
:100600008816080083160313081088100811881133
:100610000812881208178817831603178901831692
:1006200003138601831203138601881628300A12E9
:100630008A111D210A128A110C300A128A111D21F9
:100640000A128A1101300A128A111D210A128A1116
:1006500002300A128A111D210A128A1108008B1316
:10066000831603170814831603131F129F129F1774
:10067000831203131F083F3980389F00C3309F0542
:100680009E01831603139E01831203131F140B177D
:10069000831603130C178B17831203139F14080080
:1006A000831203131E08F600F7017608F40077089A
:1006B000F5007408F700F601831603131E08760789
:1006C000F8000030031801307707F9007808F400CB
:1006D0007908F500831203139F1408000B1D712B7A
:1006E000722B782B0B110A128A11CA230A128A1153
:1006F000831203130C1F7D2B7E2B842B0C130A12E9
:100700008A1150230A128A117B088A007A0E83000C
:10071000FE0E7E0E090003308A000408840A820758
:1007200000344134443443343A34203420342034C7
:100730002034203420342034203420342034203419
:100740002034003483120313A5002508A4000630CA
:100750000310A40DFF3E031DA82B230824077F3997
:10076000803E0A128A111D210A128A1108007E0891
:100770008A007F0882000A128A11B7230A128A119E
:100780008000840A04087D0603190034FF0A031957
:10079000FE0ABB2B0630831203138100700871041C
:1007A0000319D32BD42BDA2B0130F0020030031CB9
:1007B000F103F1020800043400340134073400343A
:1007C0000034003400340034003400340034750840
:0C07D00083120313A1007408A0000800AD
:04400E00D420FF3F7C
:00000C01F3
